:100000000A128A11FC2E00308A000408840A820732
:100010000034483445344C344C344F342034573455
:100020004F3452344C34443400344C345934433417
:0E0030004134203453344F34463454340034B9
:100DF80083010A128A11CC2FF000700883120313A2
:100E08009900062F0C1E092F0A2F062F0B2F0800FA
:100E1800831603138717071381309900243098002D
:100E28009030831203139800080002300A128A11C6
:100E38006E270A128A1128300A128A116E270A129E
:100E48008A110C300A128A116E270A128A110800B8
:100E5800F2003F2F720884000A128A1103200A1236
:100E68008A110A128A1100270A128A110130F10028
:100E78007108F2073F2F720884000A128A110320B2
:100E88000A128A110038031D4A2F4B2F2E2F4C2F80
:100E98000800F400602F740884000A128A110320E5
:100EA8000A128A110A128A119D270A128A11013020
:100EB800F3007308F407602F740884000A128A117B
:100EC80003200A128A110038031D6B2F6C2F4F2F35
:100ED8006D2F0800F2007208F0398312031388009E
:100EE800081188152130F1007630F000F00B7A2FC8
:100EF800F10B7A2F64008312031388117208F00033
:100F080003300310F00DFF3E031D852F0310700DF5
:100F1800F0398800081188152130F1007630F0008A
:100F2800F00B942FF10B942F640083120313881194
:100F38000800F2007208F0398312031388000815BC
:100F480088152130F1007630F000F00BA92FF10B55
:100F5800A92F64008312031388117208F00003306C
:100F68000310F00DFF3E031DB42F0310700DF03970
:100F78008800081588152130F1007630F000F00B54
:100F8800C32FF10BC32F64008312031388110800C9
:100F98008316031388018312031388010A128A1126
:100FA80019270A128A110A128A110C270A128A11A1
:100FB80080300A128A116E270A128A110D300A121D
:100FC8008A114D270A128A11E92FC0300A128A1194
:100FD8006E270A128A1101300A128A114D270A1245
:100FE8008A1101300A128A112C270A128A11E92F54
:080FF800E92F0A128A110028FA
:02400E003A3F37
:00000001FF
